:0300000002087A79
:0C087A00787FE4F6D8FD758107020800C5
:07085C00F452807FE87E03E7
:10086300EFD3940040107D6E7C00ED1D70011CEDF4
:060873004C70F71F80EA43
:01087900225C
:10080000D293C294C290D291D2927580FFE4FB74CD
:1008100001A803088002C333D8FC12085C0BBB0894
:10082000EE7580FF7FF47E01120863E4F5807FF4AB
:100830001208637580FF7FF41208637B08EB14FFD6
:100840007401A807088002C333D8FC12085CDBEDF2
:0C0850007580FF7FF47E0112086380B108
:00000001FF
