:030000000208FDF6
:0C08FD00787FE4F6D8FD75810A0208003F
:1008ED00C0F9A4B0999282F880908883A7A1868ED2
:1008D600EFD3940040107D6E7C00ED1D70011CED81
:0608E6004C70F71F80EAD0
:0108EC0022E9
:10080000E4F50AD293C2947580FF120000AB07AAE8
:10081000067C007D641208818F087C007D64AF0334
:10082000AE021208817E007F0ACFCDCFCECCCE1291
:1008300008818F09AE02AF037C007D0A120881AFE8
:1008400005E50A14601214601B24027028C290C2CD
:1008500091C292050AEF8017D290C291C292050A06
:10086000E509800BC290D291C292E4F50AE50890A6
:1008700008ED93F5807F017E001208D67580FF8019
:0108800089EE
:10088100BC000BBE0029EF8DF084FFADF022E4CC5B
:10089100F875F008EF2FFFEE33FEEC33FCEE9DEC24
:1008A100984005FCEE9DFE0FD5F0E9E4CEFD22ED6A
:1008B100F8F5F0EE8420D21CFEADF075F008EF2FB4
:1008C100FFED33FD4007985006D5F0F222C398FDA5
:0508D1000FD5F0EA2242
:00000001FF
