:030000000208FEF5
:0C08FE00787FE4F6D8FD75810C020945F6
:1009DA00C0F9A4B0999282F880908883A7A1868EE4
:0A09EA0002090000010B00010800E3
:0409AA007F0A7E0042
:1009AE00EFD3940040107D6E7C00ED1D70011CEDA8
:0609BE004C70F71F80EAF7
:0109C4002210
:10098A00E50B7011C290C291C292E4F50BE5089092
:10099A0009DA93F5807F017E001209AE7580FF2285
:1008000075A0FEE5A054F0F50C64F060331209AA5F
:1008100085A00CE50C64F0602785A00CE50C248213
:10082000601B24C0601224E0600924F07012750877
:1008300001800D7508028008750803800375080F94
:1008400075A0FDE5A054F0F50C64F060331209AA20
:1008500085A00CE50C64F0602785A00CE50C2483D2
:10086000601B24C0601224E0600924F07012750837
:1008700004800D7508058008750806800375080E4C
:1008800075A0FBE5A054F0F50C64F060331209AAE2
:1008900085A00CE50C64F0602785A00CE50C248590
:1008A000601B24C0601224E0600924F070127508F7
:1008B00007800D7508088008750809800375080D04
:1008C00075A0F7E5A054F0F50C64F060301209AAA9
:1008D00085A00CE50C64F0602485A00CE50C24894F
:1008E000601824C0601024E0600824F0700F7508C0
:0D08F0000A2275080B2275080C22E4F50899
:0108FD0022D8
:1009C500D293C294C290D291D2927580FF12080040
:0509D50012098A80F800
:10090A000209C5E493A3F8E493A34003F68001F235
:10091A0008DFF48029E493A3F85407240CC8C333EE
:10092A00C4540F4420C8834004F456800146F6DFBD
:10093A00E4800B01020408102040809009EAE47E5A
:10094A00019360BCA3FF543F30E509541FFEE493B2
:10095A00A360010ECF54C025E060A840B8E493A379
:10096A00FAE493A3F8E493A3C8C582C8CAC583CAA4
:10097A00F0A3C8C582C8CAC583CADFE9DEE780BE5C
:0109F4000002
:00000001FF
